:020000040800F2
:1000000000000220157300081D5900081F59000840
:100010002159000823590008255900080000000054
:100020000000000000000000000000002162000845
:100030002759000800000000C1620008256300087D
:100040006573000865730008657300086573000830
:100050006573000865730008657300086573000820
:100060006573000865730008657300086573000810
:100070006573000865730008657300086573000800
:1000800065730008657300086573000865730008F0
:1000900065730008657300086573000865730008E0
:1000A00065730008657300086573000865730008D0
:1000B00065730008657300086573000865730008C0
:1000C00065730008657300086573000865730008B0
:1000D00065730008657300086573000865730008A0
:1000E0006573000865730008000000006573000870
:1000F0006573000865730008657300086573000880
:10010000657300086573000865730008657300086F
:1001100065730008657300082959000865730008B5
:10012000657300086573000865730008657300084F
:10013000657300086573000865730008657300083F
:1001400000000000000000000000000000000000AF
:10015000657300086573000865730008657300081F
:10016000657300086573000865730008657300080F
:1001700065730008657300086573000800000000DF
:1001800065730008657300086573000865730008EF
:1001900065730008657300086573000865730008DF
:1001A00065730008657300086573000865730008CF
:1001B00065730008657300086573000865730008BF
:1001C00065730008657300086573000865730008AF
:1001D000657300086573000865730008657300089F
:1001E000657300086573000865730008657300088F
:1001F000657300086573000865730008657300087F
:10020000657300086573000865730008657300086E
:10021000657300086573000865730008657300085E
:10022000657300086573000865730008000000002E
:10023000657300086573000800000000657300081E
:10024000657300086573000865730008657300082E
:10025000657300086573000865730008657300081E
:10026000657300086573000865730008657300080E
:1002700065730008657300086573000800000000DE
:1002800065730008657300086573000800000000CE
:08029000000000006573000886
:1002C00010B5054C237833B9044B13B10448AFF390
:1002D00000800123237010BD0405002000000000F1
:1002E000CC73000808B5034B1BB103490348AFF3B7
:1002F000008008BD0000000008050020CC73000845
:1003000053B94AB9002908BF00281CBF4FF0FF317C
:100310004FF0FF3000F072B9ADF1080C6DE904CE7A
:1003200000F006F8DDF804E0DDE9022304B07047D0
:100330002DE9F047089E04468846002B4BD18A429F
:10034000154667D9B2FA82F24AB1C2F1200701FA22
:1003500002F320FA07F7954047EA030894404FEA72
:10036000154E230CB8FBFEF71FFA85FC0EFB178811
:1003700043EA084307FB0CF1994209D9EB1807F14E
:10038000FF3080F01B81994240F21881023F2B44DC
:100390005B1AA4B2B3FBFEF00EFB103344EA034435
:1003A00000FB0CFCA44509D92C1900F1FF3380F0A7
:1003B0000781A44540F2048102382C4440EA0740FA
:1003C000A4EB0C0400271EB1D4400023C6E900436F
:1003D0003946BDE8F0878B4209D9002E00F0EB804A
:1003E0000027C6E9000138463946BDE8F087B3FA70
:1003F00083F7002F47D18B4202D3824200F2FA806A
:10040000841A61EB030301209846002EE0D0C6E970
:100410000048DDE702B9FFDEB2FA82F2002A40F0BE
:100420008F80491B4FEA154E1FFA85F80127B1FB53
:10043000FEFC230C0EFB1C1143EA014308FB0CF1EC
:10044000994207D9EB180CF1FF3002D2994200F221
:10045000CD808446591AA3B2B1FBFEF00EFB1014F6
:1004600043EA044408FB00F8A04507D92C1900F121
:10047000FF3302D2A04500F2B6801846A4EB080470
:1004800040EA0C409FE7C7F1200CBB4022FA0CFE6B
:100490004EEA030E01FA07F420FA0CF521FA0CF3E8
:1004A0004FEA1E482543B3FBF8F92C0C08FB19331F
:1004B0001FFA8EFA44EA034309FB0AF49C4202FA4B
:1004C00007F200FA07F10BD91EEB030309F1FF3025
:1004D00080F087809C4240F28480A9F10209734435
:1004E0001B1BADB2B3FBF8F008FB103345EA034425
:1004F00000FB0AFAA24508D91EEB040400F1FF3301
:100500006BD2A24569D90238744440EA0940A0FB85
:100510000289A4EB0A044C45C2464B4654D351D041
:10052000002E69D0B1EB0A0564EB030404FA0CFC5D
:10053000FD40FC404CEA0505C6E90054002747E7AA
:10054000C2F1200320FA03F7954001FA02F021FAE4
:1005500003F34FEA154E3843010CB3FBFEF71FFAC5
:1005600085F80EFB173341EA034107FB08F38B4282
:1005700004FA02F407D9691807F1FF3C2FD28B4225
:100580002DD9023F2944CB1A81B2B3FBFEF00EFBFA
:10059000103341EA034100FB08F38B4207D9691885
:1005A00000F1FF3C17D28B4215D902382944C91AF1
:1005B00040EA07473BE73746304609E70746E7E6A4
:1005C0001846FBE64145ABD2B8EB020A69EB0E02D6
:1005D00001381346A4E76046E9E7184695E7674601
:1005E000D1E781467CE702382C4447E7ACF1020CA6
:1005F0002B442FE7384608E73746E9E6704700BF47
:10060000844641EA000313F003036DD1403A41D31D
:1006100051F8043B40F8043B51F8043B40F8043BDC
:1006200051F8043B40F8043B51F8043B40F8043BCC
:1006300051F8043B40F8043B51F8043B40F8043BBC
:1006400051F8043B40F8043B51F8043B40F8043BAC
:1006500051F8043B40F8043B51F8043B40F8043B9C
:1006600051F8043B40F8043B51F8043B40F8043B8C
:1006700051F8043B40F8043B51F8043B40F8043B7C
:1006800051F8043B40F8043B51F8043B40F8043B6C
:10069000403ABDD2303211D351F8043B40F8043B0C
:1006A00051F8043B40F8043B51F8043B40F8043B4C
:1006B00051F8043B40F8043B103AEDD20C3205D31C
:1006C00051F8043B40F8043B043AF9D2043208D014
:1006D000D2071CBF11F8013B00F8013B01D30B8886
:1006E00003806046704700BF082A13D38B078DD064
:1006F00010F003038AD0C3F10403D21ADB071CBF36
:1007000011F8013B00F8013B80D331F8023B20F89F
:10071000023B7BE7043AD9D3013A11F8013B00F8D8
:10072000013BF9D20B7803704B7843708B78837060
:10073000604670470000000000000000000000005C
:1007400090F800F06DE9024520F007016FF0000C11
:1007500010F0070491F820F040F049804FF00004B9
:100760006FF00700D1E9002391F840F000F1080094
:1007700082FA4CF2A4FA8CF283FA4CF3A2FA8CF3CC
:100780004BBBD1E9022382FA4CF200F10800A4FA33
:100790008CF283FA4CF3A2FA8CF3E3B9D1E9042387
:1007A00082FA4CF200F10800A4FA8CF283FA4CF3BE
:1007B000A2FA8CF37BB9D1E9062301F1200182FA78
:1007C0004CF200F10800A4FA8CF283FA4CF3A2FA7E
:1007D0008CF3002BC6D0002A04BF04301A4612BA8C
:1007E000B2FA82F2FDE8024500EBD2007047D1E98F
:1007F000002304F00305C4F100004FEAC50514F01E
:10080000040F91F840F00CFA05F562EA05021CBFEE
:1008100063EA050362464FF00004A9E770B50D4E88
:100820000D4D761BB61006D00024013455F8043B5C
:100830009847A642F9D1094E094D761B06F0C6FD30
:10084000B61006D00024013455F8043B9847A64260
:10085000F9D170BD90750008907500089875000872
:1008600090750008F0B4860743D0541E002A3ED08D
:10087000CAB2034602E014F1FF3438D303F8012B67
:100880009D07F8D1032C2BD9CDB245EA05250F2CB5
:1008900045EA054516D9A4F110073F0903F12006E2
:1008A00006EB071603F1100242E9045542E902552E
:1008B0001032B242F8D104F00F040137032C03EBDD
:1008C00007130DD91E462246043A032A46F8045B54
:1008D000FAD8221F22F003020432134404F0030466
:1008E0002CB1C9B21C4403F8011B9C42FBD1F0BCE3
:1008F000704714460346C5E7024B13B1024800F0A7
:1009000005B87047000000001909000800230146DF
:100910001A46184600F01EB838B50A4C0A4D641B3A
:10092000A4100AD004F18043013B05EB8305013C90
:1009300055F804399847002CF9D1BDE8384006F045
:100940004BBD00BF9C75000898750008704700BF3C
:10095000704700BF2DE9F8432B4D0646286898469E
:100960000F469146FFF7F2FF284B1C68D4F8483138
:10097000002B3DD05A681F2A0DDC02F1010C16BB7A
:100980000232C3F804C0286843F82270FFF7E0FF82
:100990000020BDE8F8831E4B7BB34FF4C870AFF363
:1009A0000080034648B3D4F848210021C0E9002163
:1009B0004FF0010CC4F848010A46C0F88811C0F88D
:1009C0008C11002EDCD003EB82010124C1F8889049
:1009D000D3F8880194402043022EC3F88801C1F85F
:1009E0000881CDD1D3F88C110C43C3F88C41C7E7F3
:1009F00004F5A673C4F84831BCE72868FFF7A8FFE0
:100A00004FF0FF30C5E700BF400400202874000805
:100A10000000000010B5032000F060F801F028F895
:100A20000F498B69C3F303230E4AD35C03F01F0302
:100A3000D8400D4B18608B6903F00F03D35C03F0B3
:100A40001F03D840094B1860002004F027FF10B1A5
:100A50000124204610BD044604F0F4FDF9E700BF70
:100A600000440258F47300080C000020100000201D
:100A7000034B1B78034A11680B441360704700BF97
:100A8000000000206C7C0020014B1868704700BFFC
:100A90006C7C002038B50446FFF7F6FF0546B4F13C
:100AA000FF3F02D0044B1B781C44FFF7EDFF401BB7
:100AB000A042FAD338BD00BF00000020014B1868E7
:100AC000000C70470010005C034A536823F4600375
:100AD00018435060704700BF000400580649CB68B7
:100AE00023F4E0631B041B0C000200F4E0600343EA
:100AF000024A1A43CA60704700ED00E00000FA05A0
:100B000030B4154BDB68C3F30223C3F10704042C94
:100B100028BF04241D1D062D14D9033B4FF0FF35BB
:100B200005FA04F421EA0401994005FA03F322EAE4
:100B300003031943002807DB0901C9B2074B195405
:100B400030BC70470023E9E700F00F000901C9B28B
:100B5000034B1954F4E700BF00ED00E000E400E0AF
:100B600014ED00E0002807DB00F01F02400901231C
:100B70009340024A42F82030704700BF00E100E095
:100B800030B48B680A6813430A7943EAC2630A7B6C
:100B900043EAC2534A7B43EA82538A7B43EA425385
:100BA000CA7B43EA02530A7C002A40F0B0804FF42B
:100BB000002213434A7C002A40F0AB804FF40032FD
:100BC00013438A7C43EA02434A6913438A69134305
:100BD0000A7F43EA02334A7F43EAC2238A7F002A1C
:100BE00040F099804FF480621343CA7F43EA422366
:100BF00091F82020002A40F090804FF48072134337
:100C00004A6A134391F8282043EA0213CA6A13433D
:100C10000468226822F07F4222F47B0222F4FE4222
:100C200022F07C0213432360CA6B91F838301B0614
:100C300043EA426391F8302043EA824391F831203D
:100C400043EA424391F83220002A68D14FF48032BF
:100C500013434A6B13430468626822F07C5222F407
:100C6000EF2222F4FF6222F007021343636091F83F
:100C700040204B6C43EA02220468E5682B4B2B4072
:100C80001343E36091F854200B6D43EA420391F85B
:100C90004C20002A45D1802213438A6C43EA024348
:100CA0000468226F22F0F2021204120C134323672D
:100CB00091F8563091F8552043EA42020468D4F87E
:100CC000903023F003031343C4F890300268D2F845
:100CD000003D23F072038C6D2343C2F8003DCB6DC1
:100CE00091F86020FAB10022134391F8612043EAA1
:100CF000021391F8622043EAC2030168D1F8302D53
:100D000022F07B021343C1F8303D30BC7047002213
:100D10004FE7002254E7002266E700226FE7002237
:100D200096E70022B8E74022DEE700BFF0FEFFFFB3
:100D300070B4026802F5805214681E4B23400C68A0
:100D4000234313600A798B6843EA02330A7B43EA40
:100D5000C232056841F204042E59174B3340134345
:100D60002B514C7B0B6A43EA0444026802F588521B
:100D70001568124B2B40234313600B690A7D43EA2D
:100D800002134A7F43EA0232056841F204142E59E5
:100D90000B4B334013432B510A7F8B6943EAC272DA
:100DA000006841F208114458064B23401343435056
:100DB00070BC7047FD87FFFFFE2FFFFF00C0FEFFE6
:100DC000EFEFC0FFFFFFC07F70B5A2B00646012560
:100DD0008DF83350002412948DF841408DF8434033
:100DE0008DF828508DF856508DF832508DF84C40C3
:100DF0008DF884504FF400530F938DF85C40189495
:100E00008DF885408DF886404FF4C36316938DF8B6
:100E100030400B948DF835508DF836408DF84040B9
:100E20001D941B9414948DF864408DF87A408DF8CD
:100E30004250202320938DF844508DF855404FF0B8
:100E4000405309934FF480430E938DF831400223B1
:100E50001F938DF878408DF879408DF854408DF8C7
:100E600034501A948DF8705009A9FFF789FE8DF857
:100E70000450029500948DF81C408DF80D408DF8BB
:100E80000C404FF4001306938DF8144004938DF832
:100E90001D404FF40673089369463046FFF748FF3C
:100EA00022B070BD30B400230DE0C56803EB4302EF
:100EB000D4002A190021295151609160D160991DF7
:100EC00040F821200133032BEFD90023836202680D
:100ED00041F22C130321D150C168026841F214136E
:100EE000D150C268036803F589531A6030BC70475B
:100EF00030B4002111E0056901EB4103DC002B193E
:100F000000222A515A609A60DA601A615A6101F12E
:100F10000A0200EB8202536001310329EBD900235E
:100F2000C36303644364C3648364026841F230139F
:100F30000321D1500169026841F21C13D1500369A9
:100F400003F5D863016841F228128B5030BC70471A
:100F500038B505460368D3F8004224F4706400F005
:100F6000BBFF114B0344114A934211D9104B034468
:100F7000104A934212D9104B0344104A934209D9A4
:100F80000F4B03440F4A93420BD944F4806401E0B1
:100F900044F400742B68C3F8004238BD44F4407434
:100FA000F8E744F48074F5E700D3CEFEBFE1E40037
:100FB00040F1E9FD3F787D0100796CFCFF59620248
:100FC000001F0AFA7FF0FA02002800F08C8030B58A
:100FD00083B00446436D8BB323236365434BD3F83F
:100FE000F42042F00202C3F8F420D3F8F43003F006
:100FF00002030193019B237A1BBB0020FFF764FDD2
:10100000236803F580531A6842F001021A60FFF763
:101010003BFD0546236803F580531B6813F0010F61
:1010200014D0FFF731FD401BB0F5FA7FF2D904234D
:10103000E365E0236365012003B030BD04F014FBD9
:10104000CAE74FF40000FFF73FFDD9E72046FFF75E
:101050007FFF00F041FF264BA3FB00239B0C22687F
:10106000013BC2F8DC302046FFF7AEFE226802F5F5
:101070008852136823F4E01343F400231360636978
:1010800013F0030F04D00120E065E0236365D3E78C
:10109000206841F208114558164A2A4042EA4303A3
:1010A00043502046FFF7FEFE2046FFF721FF62680F
:1010B00051791379226843EA0123C2F80033626848
:1010C000D17893781B0443EA0163517843EA012302
:1010D000117822680B43C2F804330020E065102326
:1010E0006365A365A8E70120704700BF004402586C
:1010F00083DE1B430180FFFFF0B482B000233AE09F
:10110000092400E00024B4403C4302356F4E46F809
:1011100025406F4C2568D44304EA05064F6817F450
:10112000803F01D042EA0506694D2E606E6804EAF0
:1011300006054F6817F4003F01D042EA0605644EE9
:1011400075604FF0B0452D6804EA05064F6817F446
:10115000801F01D042EA05064FF0B0452E606D6851
:101160002C404E6816F4001F01D042EA05044FF0EF
:10117000B042546001330A6832FA03F400F0A280EE
:1011800001249C402240F5D04D68122D18BF022D3D
:1011900010D1DE08083650F826C003F00705AF006E
:1011A0000F25BD402CEA050C0D69BD4045EA0C0534
:1011B00040F8265006685F000325BD40ED4305EA70
:1011C000060C4E6806F00306BE4046EA0C060660B2
:1011D0004E6806F1FF3C112E18BFBCF1010F01D97A
:1011E000122E11D1866805EA060CCE68BE4046EA8A
:1011F0000C068660466826EA040C4E68C6F30014A6
:101200009C4044EA0C044460C46825408C68BC409F
:101210002C43C4604C6814F0805FABD02D4CD4F8E4
:10122000F45045F00205C4F8F450D4F8F44004F04A
:1012300002040194019C9D08AE1C244C54F82670B5
:1012400003F00304A6000F24B44027EA0407224C4D
:10125000A0423FF457AF04F58064A04222D004F5C9
:101260008064A04220D004F58064A0421ED004F522
:101270008064A0421CD004F58064A0421AD004F51A
:101280008064A04218D004F58064A04216D004F512
:101290008064A04214D004F58064A0423FF430AFD3
:1012A0000A2430E701242EE702242CE703242AE74E
:1012B000042428E7052426E7062424E7072422E758
:1012C000082420E702B0F0BC704700BF00040058BB
:1012D0008000005800440258000002580369194277
:1012E00001D1002070470120704712B909048161C3
:1012F000704781617047436931EA030301D081611E
:101300007047090481617047F0B58BB0002800F088
:1013100091800446056890F8BD3323B3032384F815
:10132000BD33EB6B13F4807F01D100232361206870
:1013300003F09AFD254655F8107B6E460FCD0FC67B
:101340000FCD0FC695E8030086E80300231D0ECBE2
:10135000384603F043FD58B1022384F8BD3301251C
:1013600028460BB0F0BD80F8BC3304F053FAD5E743
:101370000021206803F07EFD002315E0D900C81A83
:1013800082002244012082F83D0082F83C30A2F81D
:101390004230002082F83F0050649064CA1A9100E5
:1013A000214408650133DBB26568AB42E6D3002314
:1013B00015E0D800C11A8A002244002182F8FD11EC
:1013C00082F8FC3182F8FF11C2F80412C2F8081248
:1013D000C21A90002044C0F810120133DBB29D42C3
:1013E000E7D8254655F8107B6E460FCD0FC60FCDBA
:1013F0000FC695E8030086E80300231D0ECB384690
:1014000003F07EFD054660B9002384F838300123DF
:1014100084F8BD33636A012B08D0206803F03CFEDA
:101420009EE7022384F8BD33012599E7204600F0AA
:1014300003F8F2E7012593E7024603680121C0F8AB
:10144000FC13002082F8F4039A6942F000629A616A
:10145000596D024A0A435A65704700BF03000010E5
:10146000124BDB6813F0040F07D1104BDB6803F05D
:101470000703834201D00120704710B50B4AD3689F
:1014800023F007031843D060FFF7FEFA0446074B2A
:101490005B6813F4005F07D1FFF7F6FA001BB0F5A5
:1014A0007A7FF4D9032000E0002010BD00480258E4
:1014B000024AD36843F08073D360704700480258F3
:1014C000002800F0CB8238B50446036813F0010F02
:1014D00025D0A94A136903F03803926A102B15D05E
:1014E000182B0FD06368B3F5803F3FD0002B53D14A
:1014F000A14B1A6822F480321A601A6822F4802202
:101500001A6038E002F00302022AEBD19A4B1B6802
:1015100013F4003F03D06368002B00F0A18223681E
:1015200013F0020F00F08E80934A1369926A13F051
:1015300038035AD0182B55D0E368002B00F0C88030
:101540008D490A6822F0190213430B60FFF79CFAD9
:101550000546894B1B6813F0040F40F0A180FFF78C
:1015600093FA401B0228F4D903207EE2824A1368D2
:1015700043F48033136063682BB3FFF785FA0546A5
:101580007D4B1B6813F4003FC9D1FFF77DFA401B68
:101590006428F5D9032068E2B3F5A02F09D0764B73
:1015A0001A6822F480321A601A6822F480221A60C3
:1015B000E1E7714B1A6842F480221A601A6842F41B
:1015C00080321A60D7E7FFF75FFA05466A4B1B685F
:1015D00013F4003FA3D0FFF757FA401B6428F5D956
:1015E000032042E212F0030FA6D1634B1B6813F0F5
:1015F000040F03D0E368002B00F034825E4A1368C6
:1016000023F01903E1680B431360FFF73DFA054629
:10161000594B1B6813F0040F06D1FFF735FA401B36
:101620000228F5D9032020E2FFF748FA41F203032C
:1016300098422CD8504A536823F47C33216943EAFA
:1016400001335360236813F0100F71D04A4A1369B5
:1016500003F03803926A082B52D0182B4CD0E36960
:10166000002B00F0A380444A136843F0800313600A
:10167000FFF70AFA0546404B1B6813F4807F7DD1C3
:10168000FFF702FA401B0228F5D90320EDE13A4AA0
:10169000536823F0FE43216943EA01635360D1E7B5
:1016A000FFF70CFA41F20303984208D8324A536814
:1016B00023F47C33216943EA01335360C2E72E4AA5
:1016C000536823F0FE43216943EA01635360B9E79D
:1016D000294A136823F001031360FFF7D5F9054683
:1016E000254B1B6813F0040FACD0FFF7CDF9401B5E
:1016F0000228F5D90320B8E102F00302012AAED195
:101700001D4B1B6813F4807F04D0E369802B01D04C
:101710000120AAE1FFF7D2F941F20303984222D84F
:10172000154A536823F0F843216A43EA8163536002
:10173000236813F0080F61D06369002B4AD00E4A6A
:10174000536F43F001035367FFF79EF905460A4BB9
:101750005B6F13F0020F51D1FFF796F9401B02287F
:10176000F5D9032081E1044AD36823F07C53216A30
:1017700043EA0163D360DBE700440258FFF79EF9B8
:1017800041F20303984208D8AE4A536823F0F84365
:10179000216A43EA81635360CAE7AA4AD36823F007
:1017A0007C53216A43EA0163D360C1E7A54A136809
:1017B00023F080031360FFF767F90546A14B1B6810
:1017C00013F4807FB4D0FFF75FF9401B0228F5D9EE
:1017D00003204AE19B4A536F23F001035367FFF74D
:1017E00053F90546974B5B6F13F0020F06D0FFF7D6
:1017F0004BF9401B0228F5D9032036E1236813F08A
:10180000200F29D0A3699BB18E4A136843F48053FB
:101810001360FFF739F905468A4B1B6813F4005F24
:101820001AD1FFF731F9401B0228F5D903201CE13A
:10183000844A136823F480531360FFF725F90546A3
:10184000804B1B6813F4005F06D0FFF71DF9401BA7
:101850000228F5D9032008E1236813F0040F21D1F1
:10186000636A002B00F00081764A126902F03802A8
:10187000182A00F0FB80022B75D0724A136823F0FF
:1018800080731360FFF700F904466E4B1B6813F07A
:10189000007F00F0E180FFF7F7F8001B0228F4D981
:1018A0000320E2E0684A136843F480731360FFF793
:1018B000EBF80546644B1B6813F4807F06D1FFF7F5
:1018C000E3F8401B6428F5D90320CEE0A368012B80
:1018D0000AD00BBB5B4B1A6F22F001021A671A6F1A
:1018E00022F004021A6704E0564A136F43F0010322
:1018F0001367A36833B3FFF7C7F80546514B1B6F57
:1019000013F0020FACD1FFF7BFF8401B41F2883350
:101910009842F3D90320A8E0052B09D0494B1A6F50
:1019200022F001021A671A6F22F004021A67E0E738
:10193000444B1A6F42F004021A671A6F42F0010218
:101940001A67D6E7FFF7A0F805463E4B1B6F13F06A
:10195000020F85D0FFF798F8401B41F28833984278
:10196000F3D9032081E0374A136823F080731360B2
:10197000FFF78AF80546334B1B6813F0007F06D04B
:10198000FFF782F8401B0228F5D903206DE02D4BAC
:10199000996A2E4A0A40A16AE06A41EA00110A43A4
:1019A0009A62226B013AC2F30802616B0139490263
:1019B00089B20A43A16B0139090401F4FE010A430B
:1019C000E16B0139090601F0FE410A431A63DA6A44
:1019D00022F00102DA62596B1D4A0A40A16C42EA08
:1019E000C1025A63DA6A22F00C02216C0A43DA62FD
:1019F000DA6A22F00202616C0A43DA62DA6A42F4BD
:101A00008032DA62DA6A42F40032DA62DA6A42F486
:101A10008022DA62DA6A42F00102DA621A6842F07F
:101A200080721A60FFF730F80446064B1B6813F00B
:101A3000007F0FD1FFF728F8001B0228F5D90320FB
:101A400013E000BF00440258004802580CFCFFFF9E
:101A50000700FFFF002008E0002006E0012070479B
:101A6000012002E0012000E0002038BD0120FCE759
:101A7000724B1B6903F03803102B00F0DB80182B2E
:101A800010D00BB16E4870476C4B1B6813F0200FE1
:101A900000F0D280694B1868C0F3C100694B23FA8B
:101AA00000F07047654A916A01F00301906AC0F343
:101AB0000510D36A03F00103526BC2F3CC0203FB9F
:101AC00002F307EE903AF8EE677A002800F0B5804E
:101AD000012966D0F9B1022900F08F8007EE100AC3
:101AE000F8EE476A9FED586A86EE267A534B1B6BD9
:101AF000C3F3080306EE903AF8EE666A9FED536A68
:101B000067EE867A76EEA77AF7EE006A77EEA67A27
:101B100027EE277A61E0494B1B6813F0200F23D092
:101B200046490A68C2F3C102464BD34007EE103A59
:101B3000F8EE476A07EE100AB8EE476A86EE867A34
:101B40000B6BC3F3080306EE903AF8EE666A9FED5E
:101B50003F6A67EE867A76EEA77AF7EE006A77EE4E
:101B6000A67A27EE277A38E007EE100AF8EE476AE1
:101B70009FED376A86EE267A304B1B6BC3F3080362
:101B800006EE903AF8EE666A9FED306A67EE867A66
:101B900076EEA77AF7EE006A77EEA67A27EE277A36
:101BA0001BE007EE100AF8EE476A9FED276A86EE03
:101BB000267A224B1B6BC3F3080306EE903AF8EE2D
:101BC000666A9FED226A67EE867A76EEA77AF7EE6E
:101BD000006A77EEA67A27EE277A184B1B6BC3F3C1
:101BE0004623013307EE903AF8EE677AC7EE276A8C
:101BF000FCEEE67A17EE900A704707EE100AF8EE50
:101C0000476A9FED146A86EE267A0C4B1B6BC3F372
:101C1000080306EE903AF8EE666A9FED0C6A67EEEE
:101C2000867A76EEA77AF7EE006A77EEA67A27EE46
:101C3000277AD2E7084870470248704700440258A4
:101C400000093D000090D0030024744A00000039D0
:101C50000024744C0024744B0024F400002800F08D
:101C60002C810346974A126802F00F028A420CD276
:101C70009448026822F00F020A430260026802F0F0
:101C80000F028A4201D00120704770B51A6812F025
:101C9000040F0CD018698C4A926902F070029042CD
:101CA00005D9894CA26922F070021043A0611A681C
:101CB00012F0080F0CD05869834AD26902F0700202
:101CC000904205D9804CE26922F070021043E06135
:101CD0001A6812F0100F0CD098697B4AD26902F48E
:101CE000E062904205D9784CE26922F4E062104348
:101CF000E0611A6812F0200F0CD0D869724A126A9B
:101D000002F07002904205D96F4C226A22F07002F4
:101D1000104320621A6812F0020F0CD0D8686A4A89
:101D2000926902F00F02904205D9674CA26922F035
:101D30000F021043A0611C460D461B6813F0010FF3
:101D400041D0614A936923F47063A1680B439361A6
:101D50006368022B0AD0032B27D0012B2CD05A4AC0
:101D6000126812F0040F06D10120A5E0126812F4E7
:101D7000003F00F0A48054490A6922F0070213438F
:101D80000B61FEF781FE06464F4B1B6903F03803DB
:101D90006268B3EBC20F16D0FEF776FE801B41F2ED
:101DA00088339842F0D9032086E0474A126812F03F
:101DB000007FE0D101207FE0434A126812F4807F67
:101DC000D9D1012078E0236813F0020F0CD0E2682B
:101DD0003D4B9B6903F00F039A4205D23A498B6948
:101DE00023F00F031A438A61364B1B6803F00F037D
:101DF000AB420CD9334A136823F00F032B43136013
:101E0000136803F00F03AB4201D0012054E02368B4
:101E100013F0040F0CD022692B4B9B6903F0700365
:101E20009A4205D228498B6923F070031A438A61CC
:101E3000236813F0080F0CD06269234BDB6903F0B1
:101E400070039A4205D22049CB6923F070031A43EC
:101E5000CA61236813F0100F0CD0A2691A4BDB691A
:101E600003F4E0639A4205D21749CB6923F4E06397
:101E70001A43CA61236813F0200F0CD0E269124B99
:101E80001B6A03F070039A4205D20F490B6A23F0D4
:101E900070031A430A62FFF7EBFD0B4B9B69C3F318
:101EA00003230A4AD35C03F01F03D840084B186091
:101EB000084B186803F0F2FC70BD01207047012048
:101EC000FAE700BF0020005200440258F4730008F3
:101ED0000C0000200400002008B501F013F8064BA8
:101EE0009B6903F00F03054AD35C03F01F03D8403E
:101EF000034B186008BD00BF00440258F47300088B
:101F00001000002008B5FFF7E7FF054BDB69C3F3BE
:101F10000213044AD35C03F01F03D84008BD00BF7E
:101F200000440258F473000808B5FFF7D5FF054BCD
:101F3000DB69C3F30223044AD35C03F01F03D840D8
:101F400008BD00BF00440258F47300083F2303603B
:101F5000114B1A6902F0070242609A6902F470623A
:101F600082609A6902F00F02C2609A6902F0700200
:101F70000261DA6902F070024261DA6902F4E06239
:101F800082611B6A03F07003C361044B1B6803F09A
:101F90000F030B60704700BF00440258002000523E
:101FA000404B9B6A03F00303032B79D070B50E46B8
:101FB00004463C4A136823F080631360FEF764FD17
:101FC0000546384B1B6813F0006F06D0FEF75CFD2A
:101FD000401B0228F5D9032070BD324B9A6A22F4C7
:101FE0007C32216842EA01329A626268013AC2F3A5
:101FF0000802A1680139490289B20A43E16801393E
:10200000090401F4FE010A4321690139090601F0BE
:10201000FE410A439A63DA6A22F0C00261690A4308
:10202000DA62DA6A22F02002A1690A43DA62DA6A25
:1020300022F01002DA62D96B1B4A0A40E16942EAD7
:10204000C102DA63DA6A42F01002DA62C6B91A46ED
:10205000DB6A43F40023D362124A136843F08063BF
:102060001360FEF711FD04460E4B1B6813F0006F62
:1020700014D1FEF709FD001B0228F5D90320ABE7B8
:10208000012E05D0074AD36A43F40013D362E3E775
:10209000044AD36A43F48013D362DDE700209BE750
:1020A00001207047004402580700FFFF404B9B6A25
:1020B00003F00303032B79D070B50E4604463C4A67
:1020C000136823F080531360FEF7DEFC0546384B9F
:1020D0001B6813F0005F06D0FEF7D6FC401B0228F9
:1020E000F5D9032070BD324B9A6A22F07C722168C8
:1020F00042EA01529A626268013AC2F30802A16898
:102100000139490289B20A43E1680139090401F43D
:10211000FE010A4321690139090601F0FE410A4323
:102120001A64DA6A22F4406261690A43DA62DA6A9E
:1021300022F40072A1690A43DA62DA6A22F4807238
:10214000DA62596C1B4A0A40E16942EAC1025A64E8
:10215000DA6A42F48072DA62C6B91A46DB6A43F47C
:102160008003D362124A136843F080531360FEF772
:102170008BFC04460E4B1B6813F0005F14D1FEF776
:1021800083FC001B0228F5D90320ABE7012E05D004
:10219000074AD36A43F08073D362E3E7044AD36A01
:1021A00043F40003D362DDE700209BE70120704782
:1021B000004402580700FFFFF8B50446036813F017
:1021C000006F2BD0436EB3F5801F18D007D9B3F53D
:1021D000001F1DD0B3F5401F2ED1002506E05BBBCC
:1021E000934AD36A43F40033D3620025904A136DB7
:1021F00023F44013616E0B431365002610E00221A7
:102200000430FFF7CDFE0546002DEFD02E4607E047
:1022100002212430FFF74AFF0546F5E70026354640
:10222000236813F4807F17D0636D042B32D8DFE866
:1022300003F006242A0B0B0001263546F0E77C4A02
:10224000D36A43F40033D3623DBB794A136D23F064
:102250000703616D0B431365236813F4007F33D0CC
:10226000A36D802B44D01AD80BB3402B1CD1002176
:10227000201DFFF795FE05461EE00021201DFFF7FB
:102280008FFE0546E0E7002104F12400FFF70EFF72
:102290000546D9E701263546DEE72E46DCE7C02BAA
:1022A0000AD0B3F5807F07D0012635460CE0604A9E
:1022B000D36A43F40033D3620DBB5D4A136D23F43C
:1022C000E073A16D0B431365236813F4806F2FD067
:1022D000D4F8A430B3F5800F3ED012D8D3B1B3F503
:1022E000001F14D10021201DFFF75AFE054616E0FD
:1022F000002104F12400FFF7D9FE0546DCE72E4655
:10230000E2E7B3F5C00F0AD0B3F5000F07D00126FE
:1023100035460DE0464AD36A43F40033D36215BB19
:10232000434A936D23F46003D4F8A4100B439365E0
:10233000236813F4006F2FD0D4F8A830B3F1007FD6
:1023400037D012D8D3B1B3F1807F14D10021201D32
:10235000FFF726FE054616E0002104F12400FFF7F2
:10236000A5FE0546DBE72E46E2E7B3F1407F0AD043
:10237000B3F1806F07D0012635460DE02C4AD36AB1
:1023800043F40033D362DDB9294A936D23F0E0634F
:10239000D4F8A8100B439365236813F0007F2AD06C
:1023A000A36C102B12D00DD9202B1DD0302B12D0A6
:1023B00009E0002104F12400FFF778FE0546E2E77A
:1023C0002E46E9E73BB10126354614E0184AD36AA8
:1023D00043F40033D3626DB9154AD36C23F0300354
:1023E000A16C0B43D36406E00221201DFFF7D8FD4A
:1023F0000546F0E72E46236813F4805F27D0E36D8F
:10240000B3F5005F3ED009D8A3B1B3F5805F0BD11F
:102410000021201DFFF7C4FD054610E0B3F5405F25
:102420000DD0B3F5804F0AD0012635460FE000BF2E
:1024300000440258934AD36A43F40033D36245BB45
:10244000904A136D23F4E043E16D0B431365236859
:1024500013F4005F33D0236EB3F5003F27D01AD8B2
:102460003BB1B3F5803F1FD10121201DFFF798FD3F
:1024700005461DBB834A136D23F4E023216E0B43F5
:1024800013651CE0002104F12400FFF70FFE054650
:10249000D5E72E46DBE7B3F5802FEAD0B3F5A02FC2
:1024A000E7D0B3F5403FE4D00126354607E00121EF
:1024B00004F12400FFF7FAFD0546DAE72E4623680B
:1024C00013F4804F2CD0D4F8AC30B3F1005F1FD0A0
:1024D00012D83BB1B3F1805F17D10121201DFFF766
:1024E0005FFD0546DDB9674A936D23F0E043D4F8FC
:1024F000AC100B43936513E0B3F1804FF2D0B3F10E
:10250000A04FEFD0B3F1405FECD00126354607E095
:10251000012104F12400FFF7C9FD0546E2E72E463C
:10252000236813F4004F1FD0E36EB3F1805F06D031
:10253000B3F1005F11D03BB10126354614E0514A9A
:10254000D36A43F40033D3626DB94E4A136D23F05E
:102550004053E16E0B43136506E00121201DFFF798
:102560001FFD0546F0E72E46236813F0807F1ED03E
:10257000636C032B17D8DFE803F007021007414A0A
:10258000D36A43F40033D36285B93E4AD36C23F057
:102590000303616C0B43D36409E00221201DFFF7A4
:1025A000FFFC0546F0E70126354600E02E4623688D
:1025B00013F4800F1FD1236813F0010F00F09E80E9
:1025C000A36F282B00F29680DFE803F084949494A4
:1025D000949494947F949494949494948D949494D7
:1025E00094949494849494949494949484949494CB
:1025F000949494948400244A136843F48073136081
:10260000FEF742FA0746204B1B6813F4807F05D182
:10261000FEF73AFAC01B6428F5D90325002D50D1E6
:10262000184B1B6FD4F8B020534013F4407F0CD0EC
:10263000144B1A6F22F44072196F41F480311967FC
:10264000196F21F4803119671A67D4F8B030B3F5E7
:10265000807F1BD0002D36D1D4F8B03003F4407207
:10266000B2F5407F23D0074A136923F47C531361EA
:1026700004490B6FD4F8B020C2F30B0213430B676D
:1026800099E700BF0044025800480258FEF7FCF9E1
:102690000746AA4B1B6F13F0020FDBD1FEF7F4F9CC
:1026A000C01B41F288339842F3D90325D2E7A348EF
:1026B000026922F47C52A24901EA13131343036115
:1026C000D6E72E4677E72E4675E70121201DFFF756
:1026D00067FC05468DB9994A536D23F03803A16F05
:1026E0000B4353650AE0012104F12400FFF7DEFCEF
:1026F0000546EFE70126354600E02E46236813F035
:10270000020F20D0636F052B19D8DFE803F0080310
:10271000110808080121201DFFF742FC05468DB96C
:10272000864A536D23F00703616F0B4353650AE03C
:10273000012104F12400FFF7B9FC0546EFE701266B
:10274000354600E02E46236813F0040F22D0D4F85B
:102750009030052B1AD8DFE803F0080312080808A8
:102760000121201DFFF71CFC054695B9734A936DA6
:1027700023F00703D4F890100B4393650AE001217E
:1027800004F12400FFF792FC0546EEE701263546EA
:1027900000E02E46236813F0200F2CD0D4F88C30A4
:1027A000B3F1005F1FD012D83BB1B3F1805F17D1F6
:1027B0000021201DFFF7F4FB0546DDB95F4A536D8C
:1027C00023F0E043D4F88C100B43536513E0B3F1CE
:1027D000804FF2D0B3F1A04FEFD0B3F1405FECD017
:1027E0000126354607E0022104F12400FFF75EFCD4
:1027F0000546E2E72E46236813F0400F2CD0D4F8AC
:102800009830B3F5006F1FD012D83BB1B3F5806F8D
:1028100017D10021201DFFF7C3FB0546DDB9474A4C
:10282000936D23F4E053D4F898100B43936513E0B1
:10283000B3F5805FF2D0B3F5A05FEFD0B3F5406F92
:10284000ECD00126354607E0022104F12400FFF711
:102850002DFC0546E2E72E46236813F0800F2CD0AE
:10286000D4F89C30B3F5804F1FD012D83BB1B3F5EC
:10287000005F17D10021201DFFF792FB0546DDB94F
:102880002E4A936D23F46043D4F89C100B43936558
:1028900013E0B3F5004FF2D0B3F5204FEFD0B3F50E
:1028A000C04FECD00126354607E0022104F1240098
:1028B000FFF7FCFB0546E2E72E46236813F0080FFE
:1028C0000AD0D4F88030B3F5805F24D01B494A6D1C
:1028D00022F4405213434B65236813F0100F0AD0C3
:1028E000D4F89430B3F5807F1ED014498A6D22F459
:1028F000407213438B65236813F4002F39D0D4F84A
:10290000A030B3F5803F2CD0B3F5003F1FD0CBB142
:10291000012635462DE0022104F12400FFF7C6FB15
:102920000028D9D00126D7E7022104F12400FFF7BF
:10293000BDFB0028DFD00126DDE700BF00440258C0
:10294000CFFFFF000021201DFFF72AFB05467DB9C0
:10295000644A936D23F44033D4F8A0100B4393657D
:1029600007E0022104F12400FFF7A0FB0546EEE793
:102970002E46236813F4802F24D0D4F88430B3F586
:10298000001F17D0B3F5401F0AD0B3F5801F02D047
:102990000126354616E0534AD36A43F40033D36226
:1029A0007DB9504A536D23F44013D4F884100B437F
:1029B000536507E0012104F12400FFF777FB05468A
:1029C000EEE72E46236813F4803F14D0E36C2BB15E
:1029D000B3F5803F23D0012635460CE0414AD36A47
:1029E00043F40033D36205BB3E4AD36C23F48033F7
:1029F000E16C0B43D364236813F0005F17D12368A5
:102A000013F4003F2DD0E36FB3F5807F1BD017D9AF
:102A1000B3F5007F1CD0B3F5407F12D118E002213E
:102A2000201DFFF7BDFA0546DDE72E46E3E702214C
:102A300004F12400FFF73AFB0028E0D00126DEE78E
:102A400033B101260DE0274AD36A43F40033D36241
:102A5000002D3DD1234A536D23F44073E16F0B43A6
:102A60005365236813F4801F06D01E4A136D23F0AC
:102A70000043216F0B431365236813F0805F07D079
:102A8000184A136923F48043D4F8B4100B4313613C
:102A9000236813F4001F06D0124A136D23F08073CD
:102AA000A16E0B431365236813F0804F09D00D4BC3
:102AB0001A6922F400421A611A69D4F8B8100A435C
:102AC0001A612368002B05DB06B101263046F8BDEC
:102AD0002E46C6E7034AD36C23F04053216D0B43C7
:102AE000D364F1E70044025808B5FFF7F5F9054B48
:102AF0001B6AC3F30213044AD35C03F01F03D840DC
:102B000008BD00BF00440258F473000810B47849AF
:102B10008C6A8A6AC2F30532CB6A03F01003C96B70
:102B2000C1F3CC0103FB01F3002A00F0DB8004F0C9
:102B3000030407EE903AF8EE677A012C66D0FCB1F8
:102B4000022C00F0B28007EE102AB8EE477A9FED13
:102B5000696AC6EE076A664B9B6BC3F3080307EE10
:102B6000103AB8EE477A9FED646A67EE867A77EEA0
:102B7000277AB7EE007A77EE877A66EEA76A61E089
:102B80005B4B1B6813F0200F23D0594C2168C1F315
:102B9000C1015A4BCB4007EE103AB8EE477A06EE29
:102BA000902AB8EE666AC7EE066AA36BC3F3080301
:102BB00007EE103AB8EE477A9FED4F6A67EE867AD5
:102BC00077EE277AB7EE007A77EE877A66EEA76A15
:102BD00038E007EE102AB8EE477A9FED496AC6EE54
:102BE000076A434B9B6BC3F3080307EE103AB8EE3A
:102BF000477A9FED416A67EE867A77EE277AB7EEDD
:102C0000007A77EE877A66EEA76A1BE007EE102A55
:102C1000B8EE477A9FED376AC6EE076A344B9B6B76
:102C2000C3F3080307EE103AB8EE477A9FED326A15
:102C300067EE867A77EE277AB7EE007A77EE877AB4
:102C400066EEA76A2A4A936BC3F3462307EE103A4F
:102C5000B8EE477AB7EE006A37EE067AC6EE877AA4
:102C6000FCEEE77AC0ED007A936BC3F3064307EE00
:102C7000103AB8EE477A37EE067AC6EE877AFCEE5F
:102C8000E77AC0ED017A936BC3F3066307EE903ADF
:102C9000F8EE677A77EE867A86EEA77ABCEEC77A88
:102CA00080ED027A5DF8044B704707EE102AB8EE0B
:102CB000477A9FED146AC6EE076A0D4B9B6BC3F310
:102CC000080307EE103AB8EE477A9FED0B6A67EEFD
:102CD000867A77EE277AB7EE007A77EE877A66EE15
:102CE000A76AAFE70023036043608360DAE700BFB1
:102CF000004402580024744A000000390090D003B8
:102D00000024744C0024744B10B478498C6A8A6A8D
:102D1000C2F30552CB6A03F48073496CC1F3CC0152
:102D200003FB01F3002A00F0DB8004F0030407EE4C
:102D3000903AF8EE677A012C66D0FCB1022C00F0D4
:102D4000B28007EE102AB8EE477A9FED696AC6EEA8
:102D5000076A664B1B6CC3F3080307EE103AB8EE24
:102D6000477A9FED646A67EE867A77EE277AB7EE48
:102D7000007A77EE877A66EEA76A61E05B4B1B68A4
:102D800013F0200F23D0594C2168C1F3C1015A4BD5
:102D9000CB4007EE103AB8EE477A06EE902AB8EE2E
:102DA000666AC7EE066A236CC3F3080307EE103A9F
:102DB000B8EE477A9FED4F6A67EE867A77EE277A0C
:102DC000B7EE007A77EE877A66EEA76A38E007EE0C
:102DD000102AB8EE477A9FED496AC6EE076A434B60
:102DE0001B6CC3F3080307EE103AB8EE477A9FED69
:102DF000416A67EE867A77EE277AB7EE007A77EE49
:102E0000877A66EEA76A1BE007EE102AB8EE477ACB
:102E10009FED376AC6EE076A344B1B6CC3F3080399
:102E200007EE103AB8EE477A9FED326A67EE867A7F
:102E300077EE277AB7EE007A77EE877A66EEA76AA2
:102E40002A4A136CC3F3462307EE103AB8EE477ACA
:102E5000B7EE006A37EE067AC6EE877AFCEEE77ABE
:102E6000C0ED007A136CC3F3064307EE103AB8EED8
:102E7000477A37EE067AC6EE877AFCEEE77AC0ED3F
:102E8000017A136CC3F3066307EE903AF8EE677AA3
:102E900077EE867A86EEA77ABCEEC77A80ED027A64
:102EA0005DF8044B704707EE102AB8EE477A9FEDA5
:102EB000146AC6EE076A0D4B1B6CC3F3080307EEDA
:102EC000103AB8EE477A9FED0B6A67EE867A77EE96
:102ED000277AB7EE007A77EE877A66EEA76AAFE7D1
:102EE0000023036043608360DAE700BF00440258B8
:102EF0000024744A000000390090D0030024744C70
:102F00000024744B08B5FEF7B3FD064B9B69C3F371
:102F10000323054AD35C03F01F03D840034B18601A
:102F200008BD00BF00440258F47300080C000020E4
:102F3000704700000268D36843F00103D360026861
:102F40009168064B0B40062B18BFB3F5803F03D0AA
:102F5000136843F00103136000207047070001006D
:102F6000704770477047704710B5044603681A6988
:102F700012F0020F11D0DA6812F0020F0DD06FF0CC
:102F800002021A610123037703689B6913F0030FA0
:102F900079D0FFF7E6FF0023237723681A6912F040
:102FA000040F12D0DA6812F0040F0ED06FF0040292
:102FB0001A610223237723689B6913F4407F68D04A
:102FC0002046FFF7CEFF0023237723681A6912F00B
:102FD000080F12D0DA6812F0080F0ED06FF0080256
:102FE0001A61042323772368DB6913F0030F57D09A
:102FF0002046FFF7B6FF0023237723681A6912F0F3
:10300000100F12D0DA6812F0100F0ED06FF010020D
:103010001A61082323772368DB6913F4407F46D0C5
:103020002046FFF79EFF0023237723681A6912F0DA
:10303000010F03D0DA6812F0010F3FD123681A693B
:1030400012F0800F03D0DA6812F0800F3DD12368B0
:103050001A6912F4807F03D0DA6812F0800F3BD136
:1030600023681A6912F0400F03D0DA6812F0400F9B
:1030700039D123681A6912F0200F03D0DA6812F0F0
:10308000200F37D110BDFFF76BFF2046FFF76AFF17
:1030900081E72046FFF764FF2046FFF763FF92E7D2
:1030A0002046FFF75DFF2046FFF75CFFA3E72046C1
:1030B000FFF756FF2046FFF755FFB4E76FF0010218
:1030C0001A61204602F0B2FAB8E76FF080021A6186
:1030D000204600F0B1F8BAE76FF480721A6120461A
:1030E00000F0ABF8BCE76FF040021A612046FFF732
:1030F0003AFFBEE76FF020021A61204600F09BF80D
:10310000C0E7000070B40368374CA04214BF00242D
:103110000124B0F1804F14BF224644F00102AAB945
:10312000324DA84214BF00250125314EB0420DD0CA
:1031300065B905F1804505F58235A84214BF002523
:10314000012506F50066B04200D01DB123F07003E2
:103150004D682B4312BB254A904214BF0022012226
:10316000234DA8421AD0CAB902F1804202F5823238
:10317000904214BF0022012205F50065A8420DD03F
:1031800062B91C4A904214BF0022012205F59A350B
:10319000A84203D012B9184A904203D123F44073D5
:1031A000CA68134323F080034A69134303608A68A3
:1031B000C2620A688262114B984214BF234644F0EF
:1031C00001035BB90B4B984214BF002301230C4A47
:1031D000904203D013B9084B984201D10B690363A5
:1031E0000123436170BC70470000014000080040AB
:1031F0000004004000440140004801400004014038
:1032000000400140A8B110B5044690F83D305BB1D4
:10321000022384F83D30211D2068FFF773FF01234E
:1032200084F83D30002010BD80F83C30FFF780FE70
:10323000EEE70120704770477047704700000000BC
:103240002DE9F04387B0044601688368026913439F
:1032500042691343C2691343426E13430868874AA5
:1032600002401A430A602268536823F44053E1681D
:103270000B435360A1692268814B9A4201D0236AB3
:10328000194390687F4B03400B4393602268D36AD5
:1032900023F00F03616A0B43D36223687A4A934297
:1032A0001FD07A4A934259D0794A934270D0794AD2
:1032B000934200F08780784A934200F09D80774ADD
:1032C000934200F0B380764A934200F0F180754A51
:1032D000934200F004816A4A934200F017818025EE
:1032E0002DE1714A526D02F03802282A34D8DFE805
:1032F00012F0290033003300330033003300330071
:103300003300250133003300330033003300330032
:1033100033002B003300330033003300330033001D
:1033200033002D003300330033003300330033000B
:1033300033002F00330033003300330033003300F9
:10334000330031000125FAE00825F8E01025F6E009
:103350002025F4E04025F2E08025F0E0524A526D4D
:1033600002F00702052A11D8DFE812F00600370143
:1033700008000A000C000E000025E0E00825DEE051
:103380001025DCE02025DAE04025D8E08025D6E0D5
:10339000454A526D02F00702052A11D8DFE812F003
:1033A00006001F0108000A000C000E000025C6E000
:1033B0000825C4E01025C2E02025C0E04025BEE07D
:1033C0008025BCE0384A526D02F00702052A11D868
:1033D000DFE812F00600070108000A000C000E00EA
:1033E0000025ACE00825AAE01025A8E02025A6E0ED
:1033F0004025A4E08025A2E02B4A526D02F007028E
:10340000052A11D8DFE812F00600EF0008000A00D4
:103410000C000E00002592E0082590E010258EE0BB
:1034200020258CE040258AE0802588E01E4A526DE8
:1034300002F03802282A39D8DFE802F01538383887
:1034400038383838D738383838383838173838387E
:103450003838383819383838383838381B38383828
:10346000383838381D00012569E0082567E0102547
:1034700065E0202563E0402561E000BFF369FFCFF0
:10348000000C0058FFF4FF11001001400044004000
:1034900000480040004C0040005000400014014033
:1034A00000780040007C004000440258802546E03F
:1034B000994A526D02F00702052A0ED8DFE802F0A1
:1034C00003970507090B002539E0082537E010258B
:1034D00035E0202533E0402531E080252FE08E4A7D
:1034E000526D02F00702052A0ED8DFE802F00382CF
:1034F0000507090B002522E0082520E010251EE025
:1035000020251CE040251AE0802518E002F50E3247
:10351000926D02F00702052A0ED8DFE802F0036C74
:103520000507090B02250AE0082508E0102506E03A
:10353000202504E0402502E0802500E00425774AAC
:1035400093425AD0E369B3F5004F00F01785402D40
:1035500001F2BB81DFE815F06C07FA07B909B90978
:103560003808B909B909B9097808B909B909B9090F
:10357000B909B909B909B909B808B909B909B9093D
:10358000B909B909B909B909B909B909B909B9092B
:10359000B909B909B909B9093809B909B909B9099C
:1035A000B909B909B909B909B909B909B909B9090B
:1035B000B909B909B909B909B909B909B909B909FB
:1035C000B909B909B909B909B909B909B909B909EB
:1035D000B909B909B909B90974090425AFE704257E
:1035E000ADE70425ABE70425A9E70425A7E70425F3
:1035F000A5E70425A3E70425A1E7082D00F0A48092
:103600000BD9202D00F03481402D00F04F81102D7A
:1036100000F0D380012000F03DBF022D20D0042D0A
:10362000F8D103A8FFF772FA0498636A002B6ED0F2
:10363000012B75D0022B75D0032B75D0042B75D0C0
:10364000052B75D0062B75D0072B75D0082B75D0A0
:10365000092B75D00A2B75D00B2B55D0012357E0C1
:10366000FFF742FA636AD3B1012B39D0022B39D06C
:10367000032B39D0042B39D0052B39D0062B39D068
:10368000072B39D0082B39D0092B39D00A2B39D048
:103690000B2B01D0012303E04FF4807300E00123E2
:1036A000B0FBF3F0002801F01381666806EB4603D7
:1036B000834201F20F81B0EB063F01F20D81082D2C
:1036C00000F0518240F26181202D00F08D83402D69
:1036D00000F0EF83102D00F09F8201200023DEE137
:1036E0000223DDE70423DBE70623D9E70823D7E736
:1036F0000A23D5E70C23D3E71023D1E72023CFE714
:103700004023CDE78023CBE74FF4807300E0012313
:10371000B0FBF3F0C6E700BF00440258000C0058AD
:103720000223F5E70423F3E70623F1E70823EFE795
:103730000A23EDE70C23EBE71023E9E72023E7E773
:103740004023E5E78023E3E76846FFF7DDFA0198C9
:10375000636AD3B1012B1CD0022B1CD0032B1CD0CD
:10376000042B1CD0052B1CD0062B1CD0072B1CD0E7
:10377000082B1CD0092B1CD00A2B1CD00B2B01D0E2
:10378000012303E04FF4807300E00123B0FBF3F06A
:1037900088E70223FAE70423F8E70623F6E708237D
:1037A000F4E70A23F2E70C23F0E71023EEE72023E7
:1037B000ECE74023EAE78023E8E79C4B1B6813F023
:1037C000200F3AD0994B1B68C3F3C1039848D840E7
:1037D000636AC3B1012B1AD0022B1AD0032B1AD063
:1037E000042B1AD0052B1AD0062B1AD0072B1AD06F
:1037F000082B1AD0092B1AD00A2B1AD00B2B1AD14E
:103800004FF4807300E00123B0FBF3F04AE702239A
:10381000FAE70423F8E70623F6E70823F4E70A2388
:10382000F2E70C23F0E71023EEE72023ECE7402338
:10383000EAE78023E8E70123E6E7636A002B53D039
:10384000012B53D0022B53D0032B53D0042B53D036
:10385000052B53D0062B53D0072B53D0082B53D016
:10386000092B53D00A2B53D00B2B53D1714819E796
:10387000636A002B50D0012B50D0022B50D0032B69
:1038800050D0042B50D0052B50D0062B50D0072BF6
:1038900050D0082B50D0092B50D00A2B51D00B2BD5
:1038A00001D06548FEE643F60950FBE6636A002B4B
:1038B0004AD0012B4BD0022B4CD0032B4DD0042BE4
:1038C0004ED0052B4FD0062B50D0072B51D0082BB4
:1038D00052D0092B53D00A2B54D00B2B02D04FF4CB
:1038E0000040DFE68020DDE65148DBE65348D9E6BC
:1038F0005348D7E65348D5E65348D3E65348D1E674
:103900005348CFE64C48CDE65248CBE65248C9E68C
:103910005248C7E64648C5E64748C3E64D48C1E6B3
:103920004D48BFE64E48BDE64C48BBE64D48B9E6BB
:103930004D48B7E63F48B5E64C48B3E64FF2244061
:10394000B0E647F61220ADE64FF40040AAE64FF489
:103950008040A7E64FF40050A4E641F25550A1E69E
:103960004FF480509EE640F6CC409BE640F6AA20FD
:1039700098E64FF4006095E64FF4806092E64FF4CD
:1039800000708FE64FF480708CE6022D2FD0042D4E
:103990007FF4A3AE03A8FFF7B9F80498636A002B7D
:1039A00000F0A880012B00F0BD80022B00F0BD804C
:1039B000032B00F0BD80042B00F0BD80052B00F030
:1039C000BD80062B00F0BD80072B00F0BD80082BCA
:1039D00000F0BD80092B00F0BD800A2B00F0BD80F7
:1039E0000B2B40F0BD804FF48072002384E0FFF782
:1039F0007BF8636AE3B3012B5BD0022B5CD0032B13
:103A00005DD0042B5ED0052B5FD0062B60D0072B3A
:103A100061D0082B62D0092B63D00A2B64D00B2B0A
:103A200065D14FF48072002324E000BF00440258A7
:103A30000090D00390D0030000093D000048E80149
:103A40000024F400AAC2A20000127A0000A86100BB
:103A50005561510080841E0040420F0020A10700E4
:103A60002A2C0A00801A06001516050048E80100F5
:103A7000012200230021FCF743FC0F0247EA1067F4
:103A800006026268500800252B4616EB000847F135
:103A9000000940464946FCF733FC03462846A3F597
:103AA0004071C14A914200F219872268D36000F048
:103AB000F1BC02220023DDE704220023DAE706221C
:103AC0000023D7E708220023D4E70A220023D1E706
:103AD0000C220023CEE710220023CBE72022002374
:103AE000C8E740220023C5E780220023C2E7012265
:103AF0000023BFE7012200230021FCF701FC0F0295
:103B000047EA106706026268500800252B4616EB4C
:103B1000000847F1000940464946FCF7F1FB03461F
:103B20002846BCE702220023E6E704220023E3E75D
:103B300006220023E0E708220023DDE70A22002313
:103B4000DAE70C220023D7E710220023D4E7202253
:103B50000023D1E740220023CEE780220023CBE7D9
:103B600001220023C8E76846FFF7CEF80198636A90
:103B7000CBB1012B2FD0022B30D0032B31D0042B13
:103B800032D0052B33D0062B34D0072B35D0082B61
:103B900036D0092B37D00A2B38D00B2B39D14FF424
:103BA0008072002301E0012200230021FCF7A8FB22
:103BB0000F0247EA106706026268500800252B468C
:103BC00016EB000847F1000940464946FCF798FB10
:103BD0000346284663E702220023E6E70422002387
:103BE000E3E706220023E0E708220023DDE70A22BC
:103BF0000023DAE70C220023D7E710220023D4E7C2
:103C000020220023D1E740220023CEE78022002398
:103C1000CBE701220023C8E7644B1B6813F0200F99
:103C20005CD0624B1B68C3F3C1036148D840636A30
:103C3000CBB1012B31D0022B32D0032B33D0042B4C
:103C400034D0052B35D0062B36D0072B37D0082B98
:103C500038D0092B39D00A2B3AD00B2B3BD14FF45B
:103C60008072002301E0012200230021FCF748FBC1
:103C70004FEA012949EA10694FEA00287008002537
:103C800032462B4618EB000649F10007304639460C
:103C9000FCF736FB0346284601E702220023E4E74F
:103CA00004220023E1E706220023DEE708220023A6
:103CB000DBE70A220023D8E70C220023D5E71022F5
:103CC0000023D2E720220023CFE740220023CCE7C5
:103CD00080220023C9E701220023C6E7636AD3B12B
:103CE000012B29D0022B2CD0032B2FD0042B32D028
:103CF000052B35D0062B38D0072B3BD0082B3ED0D8
:103D0000092B41D00A2B65D00B2B68D1DFF8A0809E
:103D10004FF0000903E0DFF89C804FF003097708BB
:103D2000002532462B4618EB070049F10001FCF74D
:103D3000E7FA03462846B2E6DFF87C804FF0010937
:103D4000EDE7DFF878804FF00009E8E70FF2480967
:103D5000D9E90089E3E7DFF868804FF00009DEE782
:103D6000DFF860804FF00009D9E70FF23409D9E994
:103D70000089D4E7DFF850804FF00009CFE7DFF883
:103D80004C804FF00009CAE7DFF844804FF000098B
:103D9000C5E700BFAFF3008000AAC2A20000000088
:103DA0000055615100000000FFFC0F000044025864
:103DB0000090D003000090D0000048E8000024F4F8
:103DC0000000127A0000A8610000093D0080841EF6
:103DD0000040420FDFF8E8864FF000099FE7DFF868
:103DE00030874FF003099AE7636AD3B1012B29D0DA
:103DF000022B2CD0032B2FD0042B32D0052B35D007
:103E0000062B38D0072B3BD0082B3ED0092B41D0B6
:103E10000A2B44D00B2B47D1DFF8C4864FF00009A2
:103E200003E0DFF8F0864FF00009770800253246FE
:103E30002B4618EB070049F10001FCF761FA034635
:103E400028462CE6DFF8D0864FF00009EDE7DFF8D2
:103E5000CC864FF00009E8E70FF2A469D9E90089A0
:103E6000E3E7DFF85C864FF00009DEE7DFF8B086B5
:103E70004FF00009D9E70FF29069D9E90089D4E73A
:103E8000DFF838864FF00009CFE7DFF83C864FF0C7
:103E90000009CAE7DFF838864FF00009C5E7DFF808
:103EA0003C864FF00009C0E7DFF868864FF0000954
:103EB000BBE7636AD3B1012B29D0022B2CD0032B93
:103EC0002FD0042B32D0052B35D0062B38D0072B22
:103ED0003BD0082B3ED0092B41D00A2B44D00B2BD2
:103EE00047D14FF400484FF0000903E04FF40008B9
:103EF0004FF000097708002532462B4618EB0700E3
:103F000049F10001FCF7FCF903462846C7E54FF4E8
:103F100080084FF00009EDE74FF400184FF000095A
:103F2000E8E7DFF800864FF00009E3E74FF4801878
:103F30004FF00009DEE7DFF8F0854FF00009D9E720
:103F4000DFF8E8854FF00009D4E74FF400284FF080
:103F50000009CFE74FF480284FF00009CAE74FF47B
:103F600000384FF00009C5E74FF480384FF00009E2
:103F7000C0E74FF400084FF00009BBE7402D00F206
:103F80005482DFE815F041008F0052025202CE0049
:103F90005202520252020F015202520252025202C5
:103FA0005202520252025001520252025202520274
:103FB0005202520252025202520252025202520261
:103FC000520252025202D1015202520252025202D3
:103FD0005202520252025202520252025202520241
:103FE0005202520252025202520252025202520231
:103FF0005202520252025202520252025202520221
:104000005202520252020C02FDF77CFF636AC3B1F6
:10401000012B31D0022B31D0032B31D0042B31D0E6
:10402000052B31D0062B31D0072B31D0082B31D0C6
:10403000092B31D00A2B31D00B2B31D14FF48073A7
:1040400000E00123B0FBF3F06268530803EB400388
:10405000B3FBF2F39BB20020A3F110014FF6EF7215
:10406000914200F23D849AB222F00F02C3F3420360
:1040700013432268D3600DE20223E3E70423E1E760
:104080000623DFE70823DDE70A23DBE70C23D9E774
:104090001023D7E72023D5E74023D3E78023D1E7B8
:1040A0000123CFE7FDF740FF636AC3B1012B22D0A4
:1040B000022B22D0032B22D0042B22D0052B22D07E
:1040C000062B22D0072B22D0082B22D0092B22D05E
:1040D0000A2B22D00B2B22D14FF4807300E0012356
:1040E000B0FBF3F06268530803EB4003B3FBF2F359
:1040F0009BB20020B0E70223F2E70423F0E7062397
:10410000EEE70823ECE70A23EAE70C23E8E71023AD
:10411000E6E72023E4E74023E2E78023E0E701230A
:10412000DEE703A8FEF7F2FC049B626AC2B1012A33
:1041300022D0022A22D0032A22D0042A22D0052A01
:1041400022D0062A22D0072A22D0082A22D0092AE1
:1041500022D00A2A22D00B2A22D14FF4807200E00A
:104160000122B3FBF2F261684B0803EB4203B3FB9D
:10417000F1F39BB200206FE70222F2E70422F0E79E
:104180000622EEE70822ECE70A22EAE70C22E8E73B
:104190001022E6E72022E4E74022E2E78022E0E77F
:1041A0000122DEE76846FEF7AFFD019B626AC2B1FD
:1041B000012A22D0022A22D0032A22D0042A22D085
:1041C000052A22D0062A22D0072A22D0082A22D065
:1041D000092A22D00A2A22D00B2A22D14FF4807237
:1041E00000E00122B3FBF2F261684B0803EB4203EB
:1041F000B3FBF1F39BB200202EE70222F2E7042288
:10420000F0E70622EEE70822ECE70A22EAE70C22B2
:10421000E8E71022E6E72022E4E74022E2E78022F6
:10422000E0E70122DEE7A44B1B6813F0200F42D029
:10423000A14B1A68C2F3C102A04BD340626AD2B14B
:10424000012A24D0022A24D0032A24D0042A24D0EC
:10425000052A24D0062A24D0072A24D0082A24D0CC
:10426000092A24D00A2A24D00B2A01D0012203E0F3
:104270004FF4807200E00122B3FBF2F261684B0858
:1042800003EB4203B3FBF1F39BB20020E4E602220E
:10429000F2E70422F0E70622EEE70822ECE70A2222
:1042A000EAE70C22E8E71022E6E72022E4E74022D2
:1042B000E2E78022E0E7636ACBB1012B20D0022B3A
:1042C00020D0032B20D0042B20D0052B20D0062B70
:1042D00020D0072B20D0082B20D0092B20D00A2B50
:1042E00020D00B2B01D0764B02E0764B00E0744BD4
:1042F000626803EB5203B3FBF2F39BB20020ABE620
:104300006E4BF5E7704BF3E7704BF1E7704BEFE75F
:10431000704BEDE7704BEBE7704BE9E7704BE7E76D
:10432000704BE5E7704BE3E7636AC3B1012B1FD025
:10433000022B1FD0032B1FD0042B1FD0052B1FD007
:10434000062B1FD0072B1FD0082B1FD0092B1FD0E7
:104350000A2B1FD00B2B20D147F6122300E05F4B16
:10436000626803EB5203B3FBF2F39BB2002073E6E7
:104370005B4BF5E75B4BF3E75C4BF1E75A4BEFE741
:104380005B4BEDE75B4BEBE74E4BE9E75A4BE7E75F
:104390005A4BE5E74FF22443E2E7504BE0E7636A0C
:1043A000C3B1012B20D0022B21D0032B22D0042B10
:1043B00023D0052B24D0062B25D0072B26D0082B65
:1043C00027D0092B28D00A2B29D00B2B2AD14FF428
:1043D000807301E04FF48033626803EB5203B3FB58
:1043E000F2F39BB2002037E64FF40043F4E74FF4BA
:1043F0008043F1E742F6AA23EEE74FF40053EBE7E0
:1044000041F69813E8E741F25453E5E74FF480533F
:10441000E2E74FF40063DFE74FF48063DCE74FF43B
:104420000073D9E74FF48033D6E70120002313E669
:10443000FDF768FD636AD3B1012B36D0022B36D06D
:10444000032B36D0042B73D0052B73D0062B73D0DF
:10445000072B73D0082B73D0092B73D00A2B73D082
:104460000B2B01D0012303E04FF4807300E0012304
:10447000B0FBF3F3626803EB5203B3FBF2F39BB2BE
:104480000020A3F110014FF6EF72914200F22A8250
:104490002268D3600123A4F86A30A4F868300023AE
:1044A000E366236707B0BDE8F0830223E0E7042357
:1044B000DEE70623DCE700BF004402580090D0038B
:1044C0000020A10720A107000048E801548545010C
:1044D0000024F4000050C300AAC2A20000127A0017
:1044E00000093D0080841E0040420F005458140013
:1044F00000350C002A2C0A0090D0030048E8010087
:10450000002A2C0A0000000000151605000000001B
:10451000000090D00000093D0080841E0040420F42
:1045200000801A060055150000CC0C0000AA0A00F5
:1045300008239DE70A239BE70C2399E7102397E7BD
:10454000202395E7402393E7802391E7FDF7ECFCD8
:10455000636AD3B1012B23D0022B23D0032B23D0AA
:10456000042B23D0052B23D0062B23D0072B23D0BD
:10457000082B23D0092B23D00A2B23D00B2B01D0BF
:10458000012303E04FF4807300E00123B0FBF3F359
:10459000626803EB5203B3FBF2F39BB2002070E7B7
:1045A0000223F3E70423F1E70623EFE70823EDE70F
:1045B0000A23EBE70C23E9E71023E7E72023E5E7ED
:1045C0004023E3E78023E1E703A8FEF79FFA049B7B
:1045D000626AD2B1012A23D0022A23D0032A23D02F
:1045E000042A23D0052A23D0062A23D0072A23D041
:1045F000082A23D0092A23D00A2A23D00B2A01D043
:10460000012203E04FF4807200E00122B3FBF2F3D9
:10461000626803EB5203B3FBF2F39BB2002030E776
:104620000222F3E70422F1E70622EFE70822EDE792
:104630000A22EBE70C22E9E71022E7E72022E5E770
:104640004022E3E78022E1E76846FEF75DFB019B3D
:10465000626AD2B1012A23D0022A23D0032A23D0AE
:10466000042A23D0052A23D0062A23D0072A23D0C0
:10467000082A23D0092A23D00A2A23D00B2A01D0C2
:10468000012203E04FF4807200E00122B3FBF2F359
:10469000626803EB5203B3FBF2F39BB20020F0E637
:1046A0000222F3E70422F1E70622EFE70822EDE712
:1046B0000A22EBE70C22E9E71022E7E72022E5E7F0
:1046C0004022E3E78022E1E7874B1B6813F0200FCD
:1046D00041D0854B1A68C2F3C102844BD340626A51
:1046E000C2B1012A21D0022A21D0032A21D0042AD2
:1046F00021D0052A21D0062A21D0072A21D0082A34
:1047000021D0092A21D00A2A21D00B2A21D14FF405
:10471000807200E00122B3FBF2F3626803EB520304
:10472000B3FBF2F39BB20020ABE60222F3E70422D4
:10473000F1E70622EFE70822EDE70A22EBE70C2279
:10474000E9E71022E7E72022E5E74022E3E78022BD
:10475000E1E70122DFE7636ABBB1012B1ED0022B28
:104760001ED0032B1ED0042B1ED0052B1ED0062BD3
:104770001ED0072B1ED0082B1ED0092B1ED00A2BB3
:104780001ED00B2B1ED15A4B00E0584B626803EB36
:104790005203B3FBF2F39BB2002072E6554BF5E7F0
:1047A000554BF3E7554BF1E7554BEFE7554BEDE72D
:1047B000554BEBE7554BE9E7554BE7E7554BE5E73D
:1047C000554BE3E7494BE1E7636AD3B1012B21D0B5
:1047D000022B21D0032B21D0042B21D0052B21D05B
:1047E000062B21D0072B21D0082B21D0092B21D03B
:1047F0000A2B22D00B2B01D0444B03E043F6095384
:1048000000E0424B626803EB5203B3FBF2F39BB24E
:10481000002036E63E4BF5E73E4BF3E73F4BF1E732
:104820003D4BEFE73E4BEDE73E4BEBE7304BE9E727
:104830003D4BE7E74FF22443E4E747F61223E1E775
:10484000636AD3B1012B22D0022B23D0032B24D0B7
:10485000042B25D0052B26D0062B27D0072B28D0BC
:10486000082B29D0092B2AD00A2B2BD00B2B02D0B6
:104870004FF4004303E0802301E04FF400436268FB
:1048800003EB5203B3FBF2F39BB20020F9E54FF4C4
:104890008043F4E74FF40053F1E741F25553EEE75C
:1048A0004FF48053EBE740F6CC43E8E740F6AA2309
:1048B000E5E74FF40063E2E74FF48063DFE74FF48E
:1048C0000073DCE74FF48073D9E701200023D8E5BB
:1048D0000020DFE50120DDE50120DBE50120D9E551
:1048E0000120D7E50120D5E5004402580090D0030F
:1048F00090D003000048E8010024F400AAC2A200FE
:1049000000127A0000A861005561510000093D00C5
:1049100080841E0040420F0020A107002A2C0A00BC
:10492000801A06001516050048E80100836A13F096
:10493000010F06D00268536823F40033C16A0B43A9
:104940005360836A13F0020F06D00268536823F4A1
:104950008033016B0B435360836A13F0040F06D05E
:104960000268536823F48023416B0B435360836ACE
:1049700013F0080F06D00268536823F40043816BDC
:104980000B435360836A13F0100F06D002689368DC
:1049900023F48053C16B0B439360836A13F0200FA1
:1049A00006D00268936823F40053016C0B439360B4
:1049B000836A13F0400F0AD00268536823F480130F
:1049C000416C0B435360436CB3F5801F0BD0836A7B
:1049D00013F0800F06D00268536823F40023C16CE3
:1049E0000B43536070470268536823F4C003816C23
:1049F0000B435360EBE72DE9F04104460F461646A2
:104A00009846069D2368DB6937EA03030CBF012340
:104A10000023B3423FD1B5F1FF3FF3D0FCF734F8A8
:104A2000A0EB0800A84222D80DB323681A6812F040
:104A3000040FE7D0DA6912F4006FE3D04FF400629C
:104A40001A622268136823F4D07313602268936893
:104A500023F0010393602023C4F88030C4F884302D
:104A6000C4F88830002384F87C30032014E02268E6
:104A7000136823F4D07313602268936823F0010352
:104A800093602023C4F88030C4F88430002384F875
:104A90007C30032000E00020BDE8F0812DE9F041EA
:104AA00082B01E46D0F88030202B5CD104460D46E3
:104AB0009046B2FA82F35B09002908BF0123002B5C
:104AC00056D190F87C30012B54D0012380F87C30F3
:104AD0000023C0F888302123C0F88030FBF7D4FFD2
:104AE0000746A4F85480A4F85680A368B3F5805F05
:104AF00002D04FF0000810E023690BB34FF000081C
:104B00000BE038F8023B2268C3F308039362B4F861
:104B10005630013B9BB2A4F85630B4F856309BB2E5
:104B20008BB100963B46002280212046FFF763FFB1
:104B300010BB002DE5D015F8012B23689A62E6E73B
:104B4000A8460025E9E700963B4600224021204682
:104B5000FFF751FF034688B92022C4F880200022C5
:104B600084F87C2000E00223184602B0BDE8F08102
:104B70000123F9E70223F7E70323F5E70323F3E72C
:104B800030B583B004460023C0F88830FBF77CFFC3
:104B9000054623681B6813F0080F0ED123681B68B5
:104BA00013F0040F17D12023C4F88030C4F88430E8
:104BB000002084F87C0003B030BD6FF07E4300938A
:104BC000034600224FF400112046FFF714FF00288F
:104BD000E4D00320EFE76FF07E4300932B460022E2
:104BE0004FF480012046FFF706FF0028DBD00320AA
:104BF000E1E778B310B50446D0F880300BB3242336
:104C0000C4F880302268136823F001031360204643
:104C1000FEF716FB012813D0A36ABBB922685368BC
:104C200023F4904353602268936823F02A0393602F
:104C30002268136843F0010313602046FFF7A0FFCA
:104C400010BD80F87C3000F0ABFDD8E72046FFF7C0
:104C50006DFEE3E70120704710B485B002461A4BA1
:104C600093E8030004AC04E903006C46083393E8BE
:104C7000030084E80300536EFBB111688B68C3F333
:104C80004263886804A901EB507010F8081CC90041
:104C900010F8100C91FBF0F1A2F86A1004A90B4473
:104CA00013F8081CC90013F8103C91FBF3F3A2F8A9
:104CB000683005B05DF8044B70470123A2F86A30F4
:104CC000A2F86830F5E700BFE473000890F87C3084
:104CD000012B18D0012380F87C302423C0F88030C9
:104CE00003681A68196821F00101196022F0005266
:104CF0000023436601680A602022C0F8802080F803
:104D00007C30184670470220704738B590F87C30E8
:104D1000012B1DD00446012380F87C302423C0F8E9
:104D2000803003681D681A6822F001021A60026868
:104D3000936823F0604319439160FFF78DFF236868
:104D40001D602023C4F88030002084F87C0038BD2A
:104D50000220FCE738B590F87C30012B1DD00446CA
:104D6000012380F87C302423C0F8803003681D685C
:104D70001A6822F001021A600268936823F06063E7
:104D800019439160FFF768FF23681D602023C4F872
:104D90008030002084F87C0038BD0220FCE7000051
:104DA000002301330C4A934211D80269002AF8DA31
:104DB000036943F00103036100230133064A934270
:104DC00007D8026912F0010FF7D1002070470320C5
:104DD00070470320704700BF400D030084B010B53A
:104DE000044603A880E80E00089B012B1DD1A36B8D
:104DF00023F48033A363E2681A4B1340E360E36853
:104E000023F44013E3600F9B012B09D02046FFF7EA
:104E1000C7FF069B012B1BD0BDE8104004B07047B4
:104E2000E36843F48013E360F0E7E36843F0400392
:104E3000E3602046FFF7B4FF0C9B23B9A36B43F458
:104E40008033A363E5E7A36B23F48033A363E0E738
:104E5000A36843F00803A360A36843F02003A360A2
:104E6000DAE700BFBFFFBDFF836823F00103836063
:104E70000020704708B5C36823F0C043C360012910
:104E800009D069B9C36843F08043C3603220FBF79F
:104E900001FE002008BDC36843F00053C360F5E77E
:104EA0000120F7E7890141F020010161002301336E
:104EB000054A934205D8026912F0200FF7D100206D
:104EC00070470320704700BF400D030010230361AB
:104ED00000230133054A934205D8026912F0100FEE
:104EE000F7D1002070470320704700BF400D03003A
:104EF000D0F800381943C0F80018002070470000AF
:104F000084B02DE9F041044607A880E80E0025464C
:104F1000002306E003F1400204EB8202002151600D
:104F200001330E2BF6D9119BF3B9A36B23F40013B5
:104F3000A363236843F040032360236843F08003A6
:104F400023600023C4F8003E04F50066D4F800385E
:104F5000C4F800380C9B012B10D1099B4BB90021E0
:104F60002046FFF7C5FF0DE0A36B43F40013A363D6
:104F7000E7E701212046FFF7BBFF03E003212046BE
:104F8000FFF7B6FF10212046FFF78CFF804608B1DF
:104F90004FF001082046FFF799FF08B14FF00108D4
:104FA000002333617361F3610AE0C3B94FF000601D
:104FB000C2F8000900220A614FF67F328A6001338D
:104FC0000799994210D905EB431202F51061D2F806
:104FD00000090028E9DB0020C2F80009EAE74FF0E9
:104FE0009040C2F80009E5E700230AE0BBB14FF0AA
:104FF0009047C2F8007B002202614FF67F32826048
:105000000133994210D905EB431202F53060D2F812
:10501000007B002FEADB0027C2F8007BEBE74FF0B4
:105020000067C2F8007BE6E7336923F480733361DD
:105030000A9B012B1BD00022A2616FF080426261AB
:105040001BB9A36943F01003A361A2690E4B13437C
:10505000A3610D9B1BB1A36943F00803A361119BDE
:10506000012B0BD04046BDE8F04104B07047074A21
:105070003263316B064A0A433263DCE7A269054BAF
:105080001343A361EEE700BF00383C8000018000BD
:10509000030001000400004008B5D0F8043843F0D4
:1050A0000203C0F804380320FBF7F4FC002008BD1D
:1050B0002DE9F0418CB000240794089409940A94D7
:1050C0000B944E4BD3F8E02042F00402C3F8E020EA
:1050D000D3F8E02002F004020092009AD3F8E02016
:1050E00042F08002C3F8E020D3F8E02002F0800212
:1050F0000192019AD3F8E02042F00102C3F8E020C7
:10510000D3F8E02002F001020292029AD3F8E020E4
:1051100042F00202C3F8E020D3F8E02002F00202DD
:105120000392039AD3F8E02042F00802C3F8E0208B
:10513000D3F8E02002F008020492049AD3F8E020A9
:1051400042F04002C3F8E020D3F8E02002F0400231
:105150000592059AD3F8E02042F01002C3F8E0204F
:10516000D3F8E03003F010030693069BDFF8A48029
:10517000224644F201014046FCF7B7F8204F224690
:105180004FF480613846FCF7B0F81E4E22460221EB
:105190003046FCF7AAF84FF400530793089409949B
:1051A00007A91948FBF7A8FF44F20103079301255B
:1051B000089509940A9407A94046FBF79DFF4FF410
:1051C00080630793089509940A9407A93846FBF76A
:1051D00093FF802307930D4B0893099407A90C486C
:1051E000FBF78AFF02230793089509940A9407A9FD
:1051F0003046FBF781FF0CB0BDE8F0810044025857
:10520000000C02580010025800080258000011114A
:10521000001802580004025838B51548154B0360B1
:10522000436800241C70436880225A704368E1225E
:105230009A704368DC7043681C7143685C71012399
:1052400003720D4BC3600D4B036140F2F453436195
:10525000FBF7BAFE0A4D302221462846FBF702FB37
:10526000212345F8043C4FF440332B6138BD00BF87
:105270000082002000800240A4040020440400209A
:105280007482002038B5104C104B23604FF4E1338A
:1052900063600025A560E56025610C236361A5615D
:1052A000E56125626562A5622046FFF7A2FC2946FA
:1052B0002046FFF72AFD29462046FFF74BFD2046F2
:1052C000FFF704FD38BD00BF6C7D002000480040A2
:1052D00000B589B0002305930693144BD3F8E8205A
:1052E00042F48022C3F8E820D3F8E82002F48022B8
:1052F0000192019AD3F8E02042F00802C3F8E020BE
:10530000D3F8E03003F008030293029B4FF440739C
:105310000393022304930723079303A90448FBF78D
:10532000EBFEFFF7AFFF09B05DF804FB0044025845
:10533000000C025808B5FFF7CBFF08BD08B50A48B6
:105340000A4B0360092343600222C2600023036109
:1053500082610122C261036243628262C2620363AC
:10536000FBF7D2FF08BD00BFF87D00200000084019
:1053700038B50546002406E00A230122291905480C
:10538000FFF78CFB01342846FBF7DAF9A042F3D88B
:1053900038BD00BF6C7D002008B5084B1B68012B91
:1053A000FBD1064C0023236002210548FBF7A3FF35
:1053B0000448FFF7DDFF01232360EEE7080000202B
:1053C000001002582C74000808B50C4B1B68012B08
:1053D000FBD10A4C0023236001210948FBF78BFF16
:1053E0000848FFF7C5FF01232360074B4FF08052A9
:1053F0001A60BFF34F8FBFF36F8FE6E708000020FE
:10540000000402587074000804ED00E008B512E0D2
:10541000022000F02BFE4FF480411048FBF76BFF99
:105420000F4B01221A600F4B4FF080521A60BFF3EE
:105430004F8FBFF36F8F0A4B1B68012BFBD1084BBB
:1054400000221A604FF400510748FBF747FF00287D
:10545000DED00648FFF78CFFDAE700BF00040258F1
:105460000800002004ED00E00008025880740008E5
:105470002DE9F041CCB04C22002139A8FBF7F2F91C
:105480002022002131A8FBF7EDF9BC22002102A85F
:10549000FBF7E8F90220FBF7E3FF00230193314B10
:1054A000DA6A22F00102DA62DB6A03F00103019397
:1054B0002D4A936923F4404343F4804393619369F5
:1054C00003F440430193019B274B9B6913F4005F56
:1054D000FAD0264A936A23F0030343F0020393624F
:1054E000012639964FF480333A930225429543952D
:1054F00044961823459346950427479748954FF0BF
:105500000C08CDF8248100244A944B9439A8FBF769
:10551000D7FF3F23319303233293339408233493EB
:105520003594369437943894314631A8FCF796FB7D
:105530000F4B02930B96CDF830800D950E970F957B
:105540004FF440631093119412941F944FF400137E
:10555000239302A8FCF730FEFBF7AAFF4CB0BDE88E
:10556000F08100BF0004005800480258004402586F
:105570000200040000B583B0224A136843F001031F
:105580001360FBF747FAFFF773FFFFF791FDFFF793
:1055900043FEFFF777FEFFF7D1FE01F0A3F801F01D
:1055A00073FBFFF7C7FE184D184C0FCC28606960DD
:1055B000AA60EB6020682861A388AB822846FFF7C9
:1055C000D7FE134C0194012300930023802211493C
:1055D000114800F0B3FB231D019302250095002321
:1055E00080220E490E4800F0A9FB08340194009572
:1055F000002380220B490C4800F0A0FB00F0D0FBF8
:10560000FEE700BF001000E0707C002088740008F6
:1056100020050020A074000899530008AC7400080D
:10562000C9530008B87400080D54000808B5026892
:10563000034B9A4200D008BDFBF71AFAFBE700BF04
:105640000010004082B0074BD3F8F42042F0020271
:10565000C3F8F420D3F8F43003F002030193019B64
:1056600002B070470044025870B58CB00023079315
:10567000089309930A930B930268434B9A4201D013
:105680000CB070BD414BD3F8D82042F40042C3F8AF
:10569000D820D3F8D82002F400420092009AD3F820
:1056A000D82042F48032C3F8D820D3F8D82002F4AE
:1056B00080320192019AD3F8D82042F40032C3F824
:1056C000D820D3F8D82002F400320292029AD3F8FC
:1056D000E02042F00402C3F8E020D3F8E02002F01A
:1056E00004020392039AD3F8E02042F00102C3F8C7
:1056F000E020D3F8E02002F001020492049AD3F8EB
:10570000E02042F00202C3F8E020D3F8E02002F0EB
:1057100002020592059AD3F8E02042F04002C3F855
:10572000E020D3F8E03003F040030693069B3223D9
:105730000793022608960B250B9507A91448FBF73B
:10574000DBFC862307930896002409940A940B95A2
:1057500007A91048FBF7D0FC4FF4005307930896B5
:1057600009940A940B9507A90B48FBF7C5FC4FF465
:1057700020530793089609940A940B9507A90748A4
:10578000FBF7BAFC7CE700BF0080024000440258EF
:10579000000802580000025800040258001802587D
:1057A00000B589B0002303930493059306930793F0
:1057B0000268154B9A4202D009B05DF804FB134B06
:1057C000D3F8E82042F48022C3F8E820D3F8E82098
:1057D00002F480220192019AD3F8E02042F00802FC
:1057E000C3F8E020D3F8E03003F008030293029BF3
:1057F0004FF440730393022304930723079303A9F1
:105800000348FBF779FCD7E7004800400044025802
:10581000000C025830B589B000230393049305931C
:105820000693079302681A4B9A4201D009B030BD23
:10583000184CD4F8E03043F00103C4F8E030D4F859
:10584000E03003F001030193019B4FF4C85303932D
:10585000022304930A2307930F4D03A92846FBF75D
:105860004BFC4FF40073039300230493059303A9A7
:105870002846FBF741FCD4F8D83043F00063C4F865
:10588000D830D4F8D83003F000630293029BCDE700
:1058900000000840004402580000025800B58BB0D8
:1058A000002201463620FBF72BF93620FBF75AF988
:1058B000164BD3F8E82042F01002C3F8E820D3F8E2
:1058C000E83003F010030093009B01A902A8FCF745
:1058D0003DFBFCF717FB0E4BA3FB00239B0C013B8E
:1058E0000C480D4A026040F2E732C2604360002378
:1058F00003618360FDF786FC18B101200BB05DF8F1
:1059000004FB0448FDF716FBF8E700BF004402580B
:1059100083DE1B43A4820020001000407047FEE796
:10592000FEE7FEE7FEE7704708B50248FDF71CFBFF
:1059300008BD00BFA4820020184AD2F8883043F482
:105940007003C2F88830164B1A6842F001021A60E0
:1059500000221A6118681349014019609A61DA61DE
:105960001A629A62DA621A635A639A63DA631A6491
:105970005A64196821F4802119601A660A4B1A6862
:105980000A4B1340B3F1005F02D2094B01221A60A7
:10599000024B4FF000629A60704700BF00ED00E0DC
:1059A000004402587FEDF6EA0010005C0000FFFFA3
:1059B0000881005100F1080343604FF0FF3282601C
:1059C000C3600361002303607047002303617047D5
:1059D00043684B609A688A609A6851609960086170
:1059E000036801330360704730B40D68B5F1FF3FC1
:1059F00002D000F1080202E0026904E01A4653688E
:105A00001C68AC42FAD953684B6099608A60516057
:105A1000086103680133036030BC70470369426862
:105A2000816891608268416851605A68824206D0FC
:105A3000002202611A68013A1A6018687047826889
:105A40005A60F5E7074B9B6A1B6833B1054B9A6AAE
:105A5000D268D2685268DA627047024B4FF0FF3268
:105A6000DA6270472C05002010B50446006B00F088
:105A7000F3FD204600F0F0FD10BD2DE9F84F814602
:105A80000D4693469A460A9EDDF82C800C9C9200A7
:105A9000A521206BFAF7E6FE276B6FF040435B44CD
:105AA00007EB830727F0070785B300230F2B07D8E1
:105AB000E95CE21882F83410EA5C0AB10133F5E7D8
:105AC000002384F84330062E00D90626E662E664F9
:105AD00000252565201DFFF778FF04F11800FFF76A
:105AE00074FF2461C6F10706A6616462656584F8E7
:105AF000585052464946384600F07CFB2060B8F1C9
